{
  "_format": "hh-sol-artifact-1",
  "contractName": "VendorVault",
  "sourceName": "contracts/VendorVault.sol",
  "abi": [
    {
      "inputs": [],
      "stateMutability": "nonpayable",
      "type": "constructor"
    },
    {
      "inputs": [
        {
          "internalType": "address",
          "name": "owner",
          "type": "address"
        }
      ],
      "name": "OwnableInvalidOwner",
      "type": "error"
    },
    {
      "inputs": [
        {
          "internalType": "address",
          "name": "account",
          "type": "address"
        }
      ],
      "name": "OwnableUnauthorizedAccount",
      "type": "error"
    },
    {
      "inputs": [],
      "name": "ReentrancyGuardReentrantCall",
      "type": "error"
    },
    {
      "anonymous": false,
      "inputs": [
        {
          "indexed": true,
          "internalType": "address",
          "name": "previousOwner",
          "type": "address"
        },
        {
          "indexed": true,
          "internalType": "address",
          "name": "newOwner",
          "type": "address"
        }
      ],
      "name": "OwnershipTransferred",
      "type": "event"
    },
    {
      "anonymous": false,
      "inputs": [
        {
          "indexed": true,
          "internalType": "address",
          "name": "vendor",
          "type": "address"
        },
        {
          "indexed": false,
          "internalType": "uint256",
          "name": "amount",
          "type": "uint256"
        },
        {
          "indexed": false,
          "internalType": "uint256",
          "name": "fee",
          "type": "uint256"
        }
      ],
      "name": "PaymentProcessed",
      "type": "event"
    },
    {
      "anonymous": false,
      "inputs": [
        {
          "indexed": true,
          "internalType": "address",
          "name": "vendor",
          "type": "address"
        },
        {
          "indexed": false,
          "internalType": "uint256",
          "name": "amount",
          "type": "uint256"
        }
      ],
      "name": "VendorWithdrawn",
      "type": "event"
    },
    {
      "inputs": [],
      "name": "ORGANIZER_FEE_BPS",
      "outputs": [
        {
          "internalType": "uint256",
          "name": "",
          "type": "uint256"
        }
      ],
      "stateMutability": "view",
      "type": "function"
    },
    {
      "inputs": [
        {
          "internalType": "address",
          "name": "",
          "type": "address"
        }
      ],
      "name": "isRegisteredVendor",
      "outputs": [
        {
          "internalType": "bool",
          "name": "",
          "type": "bool"
        }
      ],
      "stateMutability": "view",
      "type": "function"
    },
    {
      "inputs": [],
      "name": "owner",
      "outputs": [
        {
          "internalType": "address",
          "name": "",
          "type": "address"
        }
      ],
      "stateMutability": "view",
      "type": "function"
    },
    {
      "inputs": [
        {
          "internalType": "address",
          "name": "_vendor",
          "type": "address"
        }
      ],
      "name": "payVendor",
      "outputs": [],
      "stateMutability": "payable",
      "type": "function"
    },
    {
      "inputs": [
        {
          "internalType": "address",
          "name": "_vendor",
          "type": "address"
        }
      ],
      "name": "registerVendor",
      "outputs": [],
      "stateMutability": "nonpayable",
      "type": "function"
    },
    {
      "inputs": [],
      "name": "renounceOwnership",
      "outputs": [],
      "stateMutability": "nonpayable",
      "type": "function"
    },
    {
      "inputs": [
        {
          "internalType": "address",
          "name": "newOwner",
          "type": "address"
        }
      ],
      "name": "transferOwnership",
      "outputs": [],
      "stateMutability": "nonpayable",
      "type": "function"
    },
    {
      "inputs": [
        {
          "internalType": "address",
          "name": "",
          "type": "address"
        }
      ],
      "name": "vendorBalances",
      "outputs": [
        {
          "internalType": "uint256",
          "name": "",
          "type": "uint256"
        }
      ],
      "stateMutability": "view",
      "type": "function"
    },
    {
      "inputs": [],
      "name": "withdraw",
      "outputs": [],
      "stateMutability": "nonpayable",
      "type": "function"
    }
  ],
  "bytecode": "0x608060405234801561001057600080fd5b5033600073ffffffffffffffffffffffffffffffffffffffff168173ffffffffffffffffffffffffffffffffffffffff16036100845760006040517f1e4fbdf700000000000000000000000000000000000000000000000000000000815260040161007b91906101a5565b60405180910390fd5b610093816100a060201b60201c565b50600180819055506101c0565b60008060009054906101000a900473ffffffffffffffffffffffffffffffffffffffff169050816000806101000a81548173ffffffffffffffffffffffffffffffffffffffff021916908373ffffffffffffffffffffffffffffffffffffffff1602179055508173ffffffffffffffffffffffffffffffffffffffff168173ffffffffffffffffffffffffffffffffffffffff167f8be0079c531659141344cd1fd0a4f28419497f9722a3daafe3b4186f6b6457e060405160405180910390a35050565b600073ffffffffffffffffffffffffffffffffffffffff82169050919050565b600061018f82610164565b9050919050565b61019f81610184565b82525050565b60006020820190506101ba6000830184610196565b92915050565b610db0806101cf6000396000f3fe6080604052600436106100865760003560e01c80638da5cb5b116100595780638da5cb5b14610121578063a6fea6f41461014c578063a76f756114610175578063b9e85963146101b2578063f2fde38b146101ce57610086565b80633ccfd60b1461008b57806343d7254c146100a2578063715018a6146100cd578063887d5e3d146100e4575b600080fd5b34801561009757600080fd5b506100a06101f7565b005b3480156100ae57600080fd5b506100b76103d1565b6040516100c49190610906565b60405180910390f35b3480156100d957600080fd5b506100e26103d7565b005b3480156100f057600080fd5b5061010b60048036038101906101069190610984565b6103eb565b60405161011891906109cc565b60405180910390f35b34801561012d57600080fd5b5061013661040b565b60405161014391906109f6565b60405180910390f35b34801561015857600080fd5b50610173600480360381019061016e9190610984565b610434565b005b34801561018157600080fd5b5061019c60048036038101906101979190610984565b610497565b6040516101a99190610906565b60405180910390f35b6101cc60048036038101906101c79190610984565b6104af565b005b3480156101da57600080fd5b506101f560048036038101906101f09190610984565b6106c5565b005b6101ff61074b565b6000600260003373ffffffffffffffffffffffffffffffffffffffff1673ffffffffffffffffffffffffffffffffffffffff16815260200190815260200160002054905060008111610286576040517f08c379a000000000000000000000000000000000000000000000000000000000815260040161027d90610a6e565b60405180910390fd5b6000600260003373ffffffffffffffffffffffffffffffffffffffff1673ffffffffffffffffffffffffffffffffffffffff1681526020019081526020016000208190555060003373ffffffffffffffffffffffffffffffffffffffff16826040516102f190610abf565b60006040518083038185875af1925050503d806000811461032e576040519150601f19603f3d011682016040523d82523d6000602084013e610333565b606091505b5050905080610377576040517f08c379a000000000000000000000000000000000000000000000000000000000815260040161036e90610b20565b60405180910390fd5b3373ffffffffffffffffffffffffffffffffffffffff167f8dd8dadc9a5b9e2314e7b00fb2691e583a1446a1a7e1c75ccb2e907829e32417836040516103bd9190610906565b60405180910390a250506103cf610791565b565b6103e881565b6103df61079a565b6103e96000610821565b565b60036020528060005260406000206000915054906101000a900460ff1681565b60008060009054906101000a900473ffffffffffffffffffffffffffffffffffffffff16905090565b61043c61079a565b6001600360008373ffffffffffffffffffffffffffffffffffffffff1673ffffffffffffffffffffffffffffffffffffffff16815260200190815260200160002060006101000a81548160ff02191690831515021790555050565b60026020528060005260406000206000915090505481565b6104b761074b565b600360008273ffffffffffffffffffffffffffffffffffffffff1673ffffffffffffffffffffffffffffffffffffffff16815260200190815260200160002060009054906101000a900460ff16610543576040517f08c379a000000000000000000000000000000000000000000000000000000000815260040161053a90610b8c565b60405180910390fd5b60003411610586576040517f08c379a000000000000000000000000000000000000000000000000000000000815260040161057d90610bf8565b60405180910390fd5b60006127106103e8346105999190610c47565b6105a39190610cb8565b9050600081346105b39190610ce9565b905080600260008573ffffffffffffffffffffffffffffffffffffffff1673ffffffffffffffffffffffffffffffffffffffff16815260200190815260200160002060008282546106049190610d1d565b92505081905550816002600061061861040b565b73ffffffffffffffffffffffffffffffffffffffff1673ffffffffffffffffffffffffffffffffffffffff16815260200190815260200160002060008282546106619190610d1d565b925050819055508273ffffffffffffffffffffffffffffffffffffffff167f7bd379b31566817ff79103ff210fc7d86fa755c249a8dc25f96618362789e19134846040516106b0929190610d51565b60405180910390a250506106c2610791565b50565b6106cd61079a565b600073ffffffffffffffffffffffffffffffffffffffff168173ffffffffffffffffffffffffffffffffffffffff160361073f5760006040517f1e4fbdf700000000000000000000000000000000000000000000000000000000815260040161073691906109f6565b60405180910390fd5b61074881610821565b50565b600260015403610787576040517f3ee5aeb500000000000000000000000000000000000000000000000000000000815260040160405180910390fd5b6002600181905550565b60018081905550565b6107a26108e5565b73ffffffffffffffffffffffffffffffffffffffff166107c061040b565b73ffffffffffffffffffffffffffffffffffffffff161461081f576107e36108e5565b6040517f118cdaa700000000000000000000000000000000000000000000000000000000815260040161081691906109f6565b60405180910390fd5b565b60008060009054906101000a900473ffffffffffffffffffffffffffffffffffffffff169050816000806101000a81548173ffffffffffffffffffffffffffffffffffffffff021916908373ffffffffffffffffffffffffffffffffffffffff1602179055508173ffffffffffffffffffffffffffffffffffffffff168173ffffffffffffffffffffffffffffffffffffffff167f8be0079c531659141344cd1fd0a4f28419497f9722a3daafe3b4186f6b6457e060405160405180910390a35050565b600033905090565b6000819050919050565b610900816108ed565b82525050565b600060208201905061091b60008301846108f7565b92915050565b600080fd5b600073ffffffffffffffffffffffffffffffffffffffff82169050919050565b600061095182610926565b9050919050565b61096181610946565b811461096c57600080fd5b50565b60008135905061097e81610958565b92915050565b60006020828403121561099a57610999610921565b5b60006109a88482850161096f565b91505092915050565b60008115159050919050565b6109c6816109b1565b82525050565b60006020820190506109e160008301846109bd565b92915050565b6109f081610946565b82525050565b6000602082019050610a0b60008301846109e7565b92915050565b600082825260208201905092915050565b7f4e6f2066756e6473000000000000000000000000000000000000000000000000600082015250565b6000610a58600883610a11565b9150610a6382610a22565b602082019050919050565b60006020820190508181036000830152610a8781610a4b565b9050919050565b600081905092915050565b50565b6000610aa9600083610a8e565b9150610ab482610a99565b600082019050919050565b6000610aca82610a9c565b9150819050919050565b7f5472616e73666572206661696c65640000000000000000000000000000000000600082015250565b6000610b0a600f83610a11565b9150610b1582610ad4565b602082019050919050565b60006020820190508181036000830152610b3981610afd565b9050919050565b7f56656e646f72206e6f7420726567697374657265640000000000000000000000600082015250565b6000610b76601583610a11565b9150610b8182610b40565b602082019050919050565b60006020820190508181036000830152610ba581610b69565b9050919050565b7f4e6f2076616c75652073656e7400000000000000000000000000000000000000600082015250565b6000610be2600d83610a11565b9150610bed82610bac565b602082019050919050565b60006020820190508181036000830152610c1181610bd5565b9050919050565b7f4e487b7100000000000000000000000000000000000000000000000000000000600052601160045260246000fd5b6000610c52826108ed565b9150610c5d836108ed565b9250828202610c6b816108ed565b91508282048414831517610c8257610c81610c18565b5b5092915050565b7f4e487b7100000000000000000000000000000000000000000000000000000000600052601260045260246000fd5b6000610cc3826108ed565b9150610cce836108ed565b925082610cde57610cdd610c89565b5b828204905092915050565b6000610cf4826108ed565b9150610cff836108ed565b9250828203905081811115610d1757610d16610c18565b5b92915050565b6000610d28826108ed565b9150610d33836108ed565b9250828201905080821115610d4b57610d4a610c18565b5b92915050565b6000604082019050610d6660008301856108f7565b610d7360208301846108f7565b939250505056fea2646970667358221220302ae25e10066e0fad209f28e4e0da4986ba05eb6aa3fee14f88536f7b11cd3964736f6c63430008140033",
  "linkReferences": {},
  "deployedLinkReferences": {}
}