{
  "_format": "hh-sol-artifact-1",
  "contractName": "VendorTicket",
  "sourceName": "contracts/VendorTicket.sol",
  "abi": [
    {
      "inputs": [
        {
          "internalType": "uint256",
          "name": "_price",
          "type": "uint256"
        },
        {
          "internalType": "uint256",
          "name": "_maxSupply",
          "type": "uint256"
        }
      ],
      "stateMutability": "nonpayable",
      "type": "constructor"
    },
    {
      "inputs": [
        {
          "internalType": "address",
          "name": "sender",
          "type": "address"
        },
        {
          "internalType": "uint256",
          "name": "tokenId",
          "type": "uint256"
        },
        {
          "internalType": "address",
          "name": "owner",
          "type": "address"
        }
      ],
      "name": "ERC721IncorrectOwner",
      "type": "error"
    },
    {
      "inputs": [
        {
          "internalType": "address",
          "name": "operator",
          "type": "address"
        },
        {
          "internalType": "uint256",
          "name": "tokenId",
          "type": "uint256"
        }
      ],
      "name": "ERC721InsufficientApproval",
      "type": "error"
    },
    {
      "inputs": [
        {
          "internalType": "address",
          "name": "approver",
          "type": "address"
        }
      ],
      "name": "ERC721InvalidApprover",
      "type": "error"
    },
    {
      "inputs": [
        {
          "internalType": "address",
          "name": "operator",
          "type": "address"
        }
      ],
      "name": "ERC721InvalidOperator",
      "type": "error"
    },
    {
      "inputs": [
        {
          "internalType": "address",
          "name": "owner",
          "type": "address"
        }
      ],
      "name": "ERC721InvalidOwner",
      "type": "error"
    },
    {
      "inputs": [
        {
          "internalType": "address",
          "name": "receiver",
          "type": "address"
        }
      ],
      "name": "ERC721InvalidReceiver",
      "type": "error"
    },
    {
      "inputs": [
        {
          "internalType": "address",
          "name": "sender",
          "type": "address"
        }
      ],
      "name": "ERC721InvalidSender",
      "type": "error"
    },
    {
      "inputs": [
        {
          "internalType": "uint256",
          "name": "tokenId",
          "type": "uint256"
        }
      ],
      "name": "ERC721NonexistentToken",
      "type": "error"
    },
    {
      "inputs": [
        {
          "internalType": "address",
          "name": "owner",
          "type": "address"
        }
      ],
      "name": "OwnableInvalidOwner",
      "type": "error"
    },
    {
      "inputs": [
        {
          "internalType": "address",
          "name": "account",
          "type": "address"
        }
      ],
      "name": "OwnableUnauthorizedAccount",
      "type": "error"
    },
    {
      "inputs": [],
      "name": "ReentrancyGuardReentrantCall",
      "type": "error"
    },
    {
      "anonymous": false,
      "inputs": [
        {
          "indexed": true,
          "internalType": "address",
          "name": "owner",
          "type": "address"
        },
        {
          "indexed": true,
          "internalType": "address",
          "name": "approved",
          "type": "address"
        },
        {
          "indexed": true,
          "internalType": "uint256",
          "name": "tokenId",
          "type": "uint256"
        }
      ],
      "name": "Approval",
      "type": "event"
    },
    {
      "anonymous": false,
      "inputs": [
        {
          "indexed": true,
          "internalType": "address",
          "name": "owner",
          "type": "address"
        },
        {
          "indexed": true,
          "internalType": "address",
          "name": "operator",
          "type": "address"
        },
        {
          "indexed": false,
          "internalType": "bool",
          "name": "approved",
          "type": "bool"
        }
      ],
      "name": "ApprovalForAll",
      "type": "event"
    },
    {
      "anonymous": false,
      "inputs": [
        {
          "indexed": false,
          "internalType": "uint256",
          "name": "_fromTokenId",
          "type": "uint256"
        },
        {
          "indexed": false,
          "internalType": "uint256",
          "name": "_toTokenId",
          "type": "uint256"
        }
      ],
      "name": "BatchMetadataUpdate",
      "type": "event"
    },
    {
      "anonymous": false,
      "inputs": [
        {
          "indexed": false,
          "internalType": "uint256",
          "name": "_tokenId",
          "type": "uint256"
        }
      ],
      "name": "MetadataUpdate",
      "type": "event"
    },
    {
      "anonymous": false,
      "inputs": [
        {
          "indexed": true,
          "internalType": "address",
          "name": "previousOwner",
          "type": "address"
        },
        {
          "indexed": true,
          "internalType": "address",
          "name": "newOwner",
          "type": "address"
        }
      ],
      "name": "OwnershipTransferred",
      "type": "event"
    },
    {
      "anonymous": false,
      "inputs": [
        {
          "indexed": true,
          "internalType": "address",
          "name": "recipient",
          "type": "address"
        },
        {
          "indexed": false,
          "internalType": "uint256",
          "name": "tokenId",
          "type": "uint256"
        }
      ],
      "name": "TicketMinted",
      "type": "event"
    },
    {
      "anonymous": false,
      "inputs": [
        {
          "indexed": true,
          "internalType": "address",
          "name": "from",
          "type": "address"
        },
        {
          "indexed": true,
          "internalType": "address",
          "name": "to",
          "type": "address"
        },
        {
          "indexed": true,
          "internalType": "uint256",
          "name": "tokenId",
          "type": "uint256"
        }
      ],
      "name": "Transfer",
      "type": "event"
    },
    {
      "inputs": [],
      "name": "MAX_SUPPLY",
      "outputs": [
        {
          "internalType": "uint256",
          "name": "",
          "type": "uint256"
        }
      ],
      "stateMutability": "view",
      "type": "function"
    },
    {
      "inputs": [],
      "name": "TICKET_PRICE",
      "outputs": [
        {
          "internalType": "uint256",
          "name": "",
          "type": "uint256"
        }
      ],
      "stateMutability": "view",
      "type": "function"
    },
    {
      "inputs": [
        {
          "internalType": "address",
          "name": "to",
          "type": "address"
        },
        {
          "internalType": "uint256",
          "name": "tokenId",
          "type": "uint256"
        }
      ],
      "name": "approve",
      "outputs": [],
      "stateMutability": "nonpayable",
      "type": "function"
    },
    {
      "inputs": [
        {
          "internalType": "address",
          "name": "owner",
          "type": "address"
        }
      ],
      "name": "balanceOf",
      "outputs": [
        {
          "internalType": "uint256",
          "name": "",
          "type": "uint256"
        }
      ],
      "stateMutability": "view",
      "type": "function"
    },
    {
      "inputs": [
        {
          "internalType": "uint256",
          "name": "tokenId",
          "type": "uint256"
        }
      ],
      "name": "getApproved",
      "outputs": [
        {
          "internalType": "address",
          "name": "",
          "type": "address"
        }
      ],
      "stateMutability": "view",
      "type": "function"
    },
    {
      "inputs": [
        {
          "internalType": "address",
          "name": "owner",
          "type": "address"
        },
        {
          "internalType": "address",
          "name": "operator",
          "type": "address"
        }
      ],
      "name": "isApprovedForAll",
      "outputs": [
        {
          "internalType": "bool",
          "name": "",
          "type": "bool"
        }
      ],
      "stateMutability": "view",
      "type": "function"
    },
    {
      "inputs": [
        {
          "internalType": "string",
          "name": "uri",
          "type": "string"
        }
      ],
      "name": "mintTicket",
      "outputs": [],
      "stateMutability": "payable",
      "type": "function"
    },
    {
      "inputs": [],
      "name": "name",
      "outputs": [
        {
          "internalType": "string",
          "name": "",
          "type": "string"
        }
      ],
      "stateMutability": "view",
      "type": "function"
    },
    {
      "inputs": [],
      "name": "owner",
      "outputs": [
        {
          "internalType": "address",
          "name": "",
          "type": "address"
        }
      ],
      "stateMutability": "view",
      "type": "function"
    },
    {
      "inputs": [
        {
          "internalType": "uint256",
          "name": "tokenId",
          "type": "uint256"
        }
      ],
      "name": "ownerOf",
      "outputs": [
        {
          "internalType": "address",
          "name": "",
          "type": "address"
        }
      ],
      "stateMutability": "view",
      "type": "function"
    },
    {
      "inputs": [],
      "name": "renounceOwnership",
      "outputs": [],
      "stateMutability": "nonpayable",
      "type": "function"
    },
    {
      "inputs": [
        {
          "internalType": "address",
          "name": "from",
          "type": "address"
        },
        {
          "internalType": "address",
          "name": "to",
          "type": "address"
        },
        {
          "internalType": "uint256",
          "name": "tokenId",
          "type": "uint256"
        }
      ],
      "name": "safeTransferFrom",
      "outputs": [],
      "stateMutability": "nonpayable",
      "type": "function"
    },
    {
      "inputs": [
        {
          "internalType": "address",
          "name": "from",
          "type": "address"
        },
        {
          "internalType": "address",
          "name": "to",
          "type": "address"
        },
        {
          "internalType": "uint256",
          "name": "tokenId",
          "type": "uint256"
        },
        {
          "internalType": "bytes",
          "name": "data",
          "type": "bytes"
        }
      ],
      "name": "safeTransferFrom",
      "outputs": [],
      "stateMutability": "nonpayable",
      "type": "function"
    },
    {
      "inputs": [
        {
          "internalType": "address",
          "name": "operator",
          "type": "address"
        },
        {
          "internalType": "bool",
          "name": "approved",
          "type": "bool"
        }
      ],
      "name": "setApprovalForAll",
      "outputs": [],
      "stateMutability": "nonpayable",
      "type": "function"
    },
    {
      "inputs": [
        {
          "internalType": "bytes4",
          "name": "interfaceId",
          "type": "bytes4"
        }
      ],
      "name": "supportsInterface",
      "outputs": [
        {
          "internalType": "bool",
          "name": "",
          "type": "bool"
        }
      ],
      "stateMutability": "view",
      "type": "function"
    },
    {
      "inputs": [],
      "name": "symbol",
      "outputs": [
        {
          "internalType": "string",
          "name": "",
          "type": "string"
        }
      ],
      "stateMutability": "view",
      "type": "function"
    },
    {
      "inputs": [
        {
          "internalType": "uint256",
          "name": "tokenId",
          "type": "uint256"
        }
      ],
      "name": "tokenURI",
      "outputs": [
        {
          "internalType": "string",
          "name": "",
          "type": "string"
        }
      ],
      "stateMutability": "view",
      "type": "function"
    },
    {
      "inputs": [
        {
          "internalType": "address",
          "name": "from",
          "type": "address"
        },
        {
          "internalType": "address",
          "name": "to",
          "type": "address"
        },
        {
          "internalType": "uint256",
          "name": "tokenId",
          "type": "uint256"
        }
      ],
      "name": "transferFrom",
      "outputs": [],
      "stateMutability": "nonpayable",
      "type": "function"
    },
    {
      "inputs": [
        {
          "internalType": "address",
          "name": "newOwner",
          "type": "address"
        }
      ],
      "name": "transferOwnership",
      "outputs": [],
      "stateMutability": "nonpayable",
      "type": "function"
    },
    {
      "inputs": [],
      "name": "withdraw",
      "outputs": [],
      "stateMutability": "nonpayable",
      "type": "function"
    }
  ],
  "bytecode": "0x60c06040523480156200001157600080fd5b506040516200324938038062003249833981810160405281019062000037919062000277565b336040518060400160405280600c81526020017f4166726f466573743230323600000000000000000000000000000000000000008152506040518060400160405280600481526020017f4146524f000000000000000000000000000000000000000000000000000000008152508160009081620000b591906200052e565b508060019081620000c791906200052e565b505050600073ffffffffffffffffffffffffffffffffffffffff168173ffffffffffffffffffffffffffffffffffffffff16036200013f5760006040517f1e4fbdf70000000000000000000000000000000000000000000000000000000081526004016200013691906200065a565b60405180910390fd5b62000150816200017160201b60201c565b50600160088190555081608081815250508060a08181525050505062000677565b6000600760009054906101000a900473ffffffffffffffffffffffffffffffffffffffff16905081600760006101000a81548173ffffffffffffffffffffffffffffffffffffffff021916908373ffffffffffffffffffffffffffffffffffffffff1602179055508173ffffffffffffffffffffffffffffffffffffffff168173ffffffffffffffffffffffffffffffffffffffff167f8be0079c531659141344cd1fd0a4f28419497f9722a3daafe3b4186f6b6457e060405160405180910390a35050565b600080fd5b6000819050919050565b62000251816200023c565b81146200025d57600080fd5b50565b600081519050620002718162000246565b92915050565b6000806040838503121562000291576200029062000237565b5b6000620002a18582860162000260565b9250506020620002b48582860162000260565b9150509250929050565b600081519050919050565b7f4e487b7100000000000000000000000000000000000000000000000000000000600052604160045260246000fd5b7f4e487b7100000000000000000000000000000000000000000000000000000000600052602260045260246000fd5b600060028204905060018216806200034057607f821691505b602082108103620003565762000355620002f8565b5b50919050565b60008190508160005260206000209050919050565b60006020601f8301049050919050565b600082821b905092915050565b600060088302620003c07fffffffffffffffffffffffffffffffffffffffffffffffffffffffffffffffff8262000381565b620003cc868362000381565b95508019841693508086168417925050509392505050565b6000819050919050565b60006200040f6200040962000403846200023c565b620003e4565b6200023c565b9050919050565b6000819050919050565b6200042b83620003ee565b620004436200043a8262000416565b8484546200038e565b825550505050565b600090565b6200045a6200044b565b6200046781848462000420565b505050565b5b818110156200048f576200048360008262000450565b6001810190506200046d565b5050565b601f821115620004de57620004a8816200035c565b620004b38462000371565b81016020851015620004c3578190505b620004db620004d28562000371565b8301826200046c565b50505b505050565b600082821c905092915050565b60006200050360001984600802620004e3565b1980831691505092915050565b60006200051e8383620004f0565b9150826002028217905092915050565b6200053982620002be565b67ffffffffffffffff811115620005555762000554620002c9565b5b62000561825462000327565b6200056e82828562000493565b600060209050601f831160018114620005a6576000841562000591578287015190505b6200059d858262000510565b8655506200060d565b601f198416620005b6866200035c565b60005b82811015620005e057848901518255600182019150602085019450602081019050620005b9565b86831015620006005784890151620005fc601f891682620004f0565b8355505b6001600288020188555050505b505050505050565b600073ffffffffffffffffffffffffffffffffffffffff82169050919050565b6000620006428262000615565b9050919050565b620006548162000635565b82525050565b600060208201905062000671600083018462000649565b92915050565b60805160a051612b9e620006ab600039600081816106f601526109ff0152600081816105d0015261099c0152612b9e6000f3fe60806040526004361061011f5760003560e01c806370a08231116100a0578063a22cb46511610064578063a22cb465146103b4578063b88d4fde146103dd578063c87b56dd14610406578063e985e9c514610443578063f2fde38b146104805761011f565b806370a08231146102ee578063715018a61461032b5780638da5cb5b1461034257806395d89b411461036d57806396651ecf146103985761011f565b806323b872dd116100e757806323b872dd1461021d57806332cb6b0c146102465780633ccfd60b1461027157806342842e0e146102885780636352211e146102b15761011f565b806301ffc9a71461012457806306fdde0314610161578063081812fc1461018c578063095ea7b3146101c95780631a95f15f146101f2575b600080fd5b34801561013057600080fd5b5061014b60048036038101906101469190611e7f565b6104a9565b6040516101589190611ec7565b60405180910390f35b34801561016d57600080fd5b5061017661050a565b6040516101839190611f72565b60405180910390f35b34801561019857600080fd5b506101b360048036038101906101ae9190611fca565b61059c565b6040516101c09190612038565b60405180910390f35b3480156101d557600080fd5b506101f060048036038101906101eb919061207f565b6105b8565b005b3480156101fe57600080fd5b506102076105ce565b60405161021491906120ce565b60405180910390f35b34801561022957600080fd5b50610244600480360381019061023f91906120e9565b6105f2565b005b34801561025257600080fd5b5061025b6106f4565b60405161026891906120ce565b60405180910390f35b34801561027d57600080fd5b50610286610718565b005b34801561029457600080fd5b506102af60048036038101906102aa91906120e9565b6107d6565b005b3480156102bd57600080fd5b506102d860048036038101906102d39190611fca565b6107f6565b6040516102e59190612038565b60405180910390f35b3480156102fa57600080fd5b506103156004803603810190610310919061213c565b610808565b60405161032291906120ce565b60405180910390f35b34801561033757600080fd5b506103406108c2565b005b34801561034e57600080fd5b506103576108d6565b6040516103649190612038565b60405180910390f35b34801561037957600080fd5b50610382610900565b60405161038f9190611f72565b60405180910390f35b6103b260048036038101906103ad919061229e565b610992565b005b3480156103c057600080fd5b506103db60048036038101906103d69190612313565b610aea565b005b3480156103e957600080fd5b5061040460048036038101906103ff91906123f4565b610b00565b005b34801561041257600080fd5b5061042d60048036038101906104289190611fca565b610b25565b60405161043a9190611f72565b60405180910390f35b34801561044f57600080fd5b5061046a60048036038101906104659190612477565b610c38565b6040516104779190611ec7565b60405180910390f35b34801561048c57600080fd5b506104a760048036038101906104a2919061213c565b610ccc565b005b6000634906490660e01b7bffffffffffffffffffffffffffffffffffffffffffffffffffffffff1916827bffffffffffffffffffffffffffffffffffffffffffffffffffffffff19161480610503575061050282610d52565b5b9050919050565b606060008054610519906124e6565b80601f0160208091040260200160405190810160405280929190818152602001828054610545906124e6565b80156105925780601f1061056757610100808354040283529160200191610592565b820191906000526020600020905b81548152906001019060200180831161057557829003601f168201915b5050505050905090565b60006105a782610e34565b506105b182610ebc565b9050919050565b6105ca82826105c5610ef9565b610f01565b5050565b7f000000000000000000000000000000000000000000000000000000000000000081565b600073ffffffffffffffffffffffffffffffffffffffff168273ffffffffffffffffffffffffffffffffffffffff16036106645760006040517f64a0ae9200000000000000000000000000000000000000000000000000000000815260040161065b9190612038565b60405180910390fd5b60006106788383610673610ef9565b610f13565b90508373ffffffffffffffffffffffffffffffffffffffff168173ffffffffffffffffffffffffffffffffffffffff16146106ee578382826040517f64283d7b0000000000000000000000000000000000000000000000000000000081526004016106e593929190612517565b60405180910390fd5b50505050565b7f000000000000000000000000000000000000000000000000000000000000000081565b61072061112d565b600061072a6108d6565b73ffffffffffffffffffffffffffffffffffffffff164760405161074d9061257f565b60006040518083038185875af1925050503d806000811461078a576040519150601f19603f3d011682016040523d82523d6000602084013e61078f565b606091505b50509050806107d3576040517f08c379a00000000000000000000000000000000000000000000000000000000081526004016107ca906125e0565b60405180910390fd5b50565b6107f183838360405180602001604052806000815250610b00565b505050565b600061080182610e34565b9050919050565b60008073ffffffffffffffffffffffffffffffffffffffff168273ffffffffffffffffffffffffffffffffffffffff160361087b5760006040517f89c62b640000000000000000000000000000000000000000000000000000000081526004016108729190612038565b60405180910390fd5b600360008373ffffffffffffffffffffffffffffffffffffffff1673ffffffffffffffffffffffffffffffffffffffff168152602001908152602001600020549050919050565b6108ca61112d565b6108d460006111b4565b565b6000600760009054906101000a900473ffffffffffffffffffffffffffffffffffffffff16905090565b60606001805461090f906124e6565b80601f016020809104026020016040519081016040528092919081815260200182805461093b906124e6565b80156109885780601f1061095d57610100808354040283529160200191610988565b820191906000526020600020905b81548152906001019060200180831161096b57829003601f168201915b5050505050905090565b61099a61127a565b7f00000000000000000000000000000000000000000000000000000000000000003410156109fd576040517f08c379a00000000000000000000000000000000000000000000000000000000081526004016109f49061264c565b60405180910390fd5b7f000000000000000000000000000000000000000000000000000000000000000060095410610a61576040517f08c379a0000000000000000000000000000000000000000000000000000000008152600401610a58906126b8565b60405180910390fd5b600060096000815480929190610a7690612707565b919050559050610a8633826112c0565b610a9081836112de565b3373ffffffffffffffffffffffffffffffffffffffff167fe3bc6f5972e89b7adec47f0277204f27cd981570e200dd4d408093535c9e8e6982604051610ad691906120ce565b60405180910390a250610ae761133a565b50565b610afc610af5610ef9565b8383611344565b5050565b610b0b8484846105f2565b610b1f610b16610ef9565b858585856114b3565b50505050565b6060610b3082610e34565b506000600660008481526020019081526020016000208054610b51906124e6565b80601f0160208091040260200160405190810160405280929190818152602001828054610b7d906124e6565b8015610bca5780601f10610b9f57610100808354040283529160200191610bca565b820191906000526020600020905b815481529060010190602001808311610bad57829003601f168201915b505050505090506000610bdb611664565b90506000815103610bf0578192505050610c33565b600082511115610c25578082604051602001610c0d92919061278b565b60405160208183030381529060405292505050610c33565b610c2e8461167b565b925050505b919050565b6000600560008473ffffffffffffffffffffffffffffffffffffffff1673ffffffffffffffffffffffffffffffffffffffff16815260200190815260200160002060008373ffffffffffffffffffffffffffffffffffffffff1673ffffffffffffffffffffffffffffffffffffffff16815260200190815260200160002060009054906101000a900460ff16905092915050565b610cd461112d565b600073ffffffffffffffffffffffffffffffffffffffff168173ffffffffffffffffffffffffffffffffffffffff1603610d465760006040517f1e4fbdf7000000000000000000000000000000000000000000000000000000008152600401610d3d9190612038565b60405180910390fd5b610d4f816111b4565b50565b60007f80ac58cd000000000000000000000000000000000000000000000000000000007bffffffffffffffffffffffffffffffffffffffffffffffffffffffff1916827bffffffffffffffffffffffffffffffffffffffffffffffffffffffff19161480610e1d57507f5b5e139f000000000000000000000000000000000000000000000000000000007bffffffffffffffffffffffffffffffffffffffffffffffffffffffff1916827bffffffffffffffffffffffffffffffffffffffffffffffffffffffff1916145b80610e2d5750610e2c826116e4565b5b9050919050565b600080610e408361174e565b9050600073ffffffffffffffffffffffffffffffffffffffff168173ffffffffffffffffffffffffffffffffffffffff1603610eb357826040517f7e273289000000000000000000000000000000000000000000000000000000008152600401610eaa91906120ce565b60405180910390fd5b80915050919050565b60006004600083815260200190815260200160002060009054906101000a900473ffffffffffffffffffffffffffffffffffffffff169050919050565b600033905090565b610f0e838383600161178b565b505050565b600080610f1f8461174e565b9050600073ffffffffffffffffffffffffffffffffffffffff168373ffffffffffffffffffffffffffffffffffffffff1614610f6157610f60818486611950565b5b600073ffffffffffffffffffffffffffffffffffffffff168173ffffffffffffffffffffffffffffffffffffffff1614610ff257610fa360008560008061178b565b6001600360008373ffffffffffffffffffffffffffffffffffffffff1673ffffffffffffffffffffffffffffffffffffffff168152602001908152602001600020600082825403925050819055505b600073ffffffffffffffffffffffffffffffffffffffff168573ffffffffffffffffffffffffffffffffffffffff1614611075576001600360008773ffffffffffffffffffffffffffffffffffffffff1673ffffffffffffffffffffffffffffffffffffffff168152602001908152602001600020600082825401925050819055505b846002600086815260200190815260200160002060006101000a81548173ffffffffffffffffffffffffffffffffffffffff021916908373ffffffffffffffffffffffffffffffffffffffff160217905550838573ffffffffffffffffffffffffffffffffffffffff168273ffffffffffffffffffffffffffffffffffffffff167fddf252ad1be2c89b69c2b068fc378daa952ba7f163c4a11628f55a4df523b3ef60405160405180910390a4809150509392505050565b611135610ef9565b73ffffffffffffffffffffffffffffffffffffffff166111536108d6565b73ffffffffffffffffffffffffffffffffffffffff16146111b257611176610ef9565b6040517f118cdaa70000000000000000000000000000000000000000000000000000000081526004016111a99190612038565b60405180910390fd5b565b6000600760009054906101000a900473ffffffffffffffffffffffffffffffffffffffff16905081600760006101000a81548173ffffffffffffffffffffffffffffffffffffffff021916908373ffffffffffffffffffffffffffffffffffffffff1602179055508173ffffffffffffffffffffffffffffffffffffffff168173ffffffffffffffffffffffffffffffffffffffff167f8be0079c531659141344cd1fd0a4f28419497f9722a3daafe3b4186f6b6457e060405160405180910390a35050565b6002600854036112b6576040517f3ee5aeb500000000000000000000000000000000000000000000000000000000815260040160405180910390fd5b6002600881905550565b6112da828260405180602001604052806000815250611a14565b5050565b806006600084815260200190815260200160002090816112fe919061295b565b507ff8e1a15aba9398e019f0b49df1a4fde98ee17ae345cb5f6b5e2c27f5033e8ce78260405161132e91906120ce565b60405180910390a15050565b6001600881905550565b600073ffffffffffffffffffffffffffffffffffffffff168273ffffffffffffffffffffffffffffffffffffffff16036113b557816040517f5b08ba180000000000000000000000000000000000000000000000000000000081526004016113ac9190612038565b60405180910390fd5b80600560008573ffffffffffffffffffffffffffffffffffffffff1673ffffffffffffffffffffffffffffffffffffffff16815260200190815260200160002060008473ffffffffffffffffffffffffffffffffffffffff1673ffffffffffffffffffffffffffffffffffffffff16815260200190815260200160002060006101000a81548160ff0219169083151502179055508173ffffffffffffffffffffffffffffffffffffffff168373ffffffffffffffffffffffffffffffffffffffff167f17307eab39ab6107e8899845ad3d59bd9653f200f220920489ca2b5937696c31836040516114a69190611ec7565b60405180910390a3505050565b60008373ffffffffffffffffffffffffffffffffffffffff163b111561165d578273ffffffffffffffffffffffffffffffffffffffff1663150b7a02868685856040518563ffffffff1660e01b81526004016115129493929190612a82565b6020604051808303816000875af192505050801561154e57506040513d601f19601f8201168201806040525081019061154b9190612ae3565b60015b6115d2573d806000811461157e576040519150601f19603f3d011682016040523d82523d6000602084013e611583565b606091505b5060008151036115ca57836040517f64a0ae920000000000000000000000000000000000000000000000000000000081526004016115c19190612038565b60405180910390fd5b805160208201fd5b63150b7a0260e01b7bffffffffffffffffffffffffffffffffffffffffffffffffffffffff1916817bffffffffffffffffffffffffffffffffffffffffffffffffffffffff19161461165b57836040517f64a0ae920000000000000000000000000000000000000000000000000000000081526004016116529190612038565b60405180910390fd5b505b5050505050565b606060405180602001604052806000815250905090565b606061168682610e34565b506000611691611664565b905060008151116116b157604051806020016040528060008152506116dc565b806116bb84611a38565b6040516020016116cc92919061278b565b6040516020818303038152906040525b915050919050565b60007f01ffc9a7000000000000000000000000000000000000000000000000000000007bffffffffffffffffffffffffffffffffffffffffffffffffffffffff1916827bffffffffffffffffffffffffffffffffffffffffffffffffffffffff1916149050919050565b60006002600083815260200190815260200160002060009054906101000a900473ffffffffffffffffffffffffffffffffffffffff169050919050565b80806117c45750600073ffffffffffffffffffffffffffffffffffffffff168273ffffffffffffffffffffffffffffffffffffffff1614155b156118f85760006117d484610e34565b9050600073ffffffffffffffffffffffffffffffffffffffff168373ffffffffffffffffffffffffffffffffffffffff161415801561183f57508273ffffffffffffffffffffffffffffffffffffffff168173ffffffffffffffffffffffffffffffffffffffff1614155b801561185257506118508184610c38565b155b1561189457826040517fa9fbf51f00000000000000000000000000000000000000000000000000000000815260040161188b9190612038565b60405180910390fd5b81156118f657838573ffffffffffffffffffffffffffffffffffffffff168273ffffffffffffffffffffffffffffffffffffffff167f8c5be1e5ebec7d5bd14f71427d1e84f3dd0314c0f7b2291e5b200ac8c7c3b92560405160405180910390a45b505b836004600085815260200190815260200160002060006101000a81548173ffffffffffffffffffffffffffffffffffffffff021916908373ffffffffffffffffffffffffffffffffffffffff16021790555050505050565b61195b838383611b06565b611a0f57600073ffffffffffffffffffffffffffffffffffffffff168373ffffffffffffffffffffffffffffffffffffffff16036119d057806040517f7e2732890000000000000000000000000000000000000000000000000000000081526004016119c791906120ce565b60405180910390fd5b81816040517f177e802f000000000000000000000000000000000000000000000000000000008152600401611a06929190612b10565b60405180910390fd5b505050565b611a1e8383611bc7565b611a33611a29610ef9565b60008585856114b3565b505050565b606060006001611a4784611cc0565b01905060008167ffffffffffffffff811115611a6657611a65612173565b5b6040519080825280601f01601f191660200182016040528015611a985781602001600182028036833780820191505090505b509050600082602083010190505b600115611afb578080600190039150507f3031323334353637383961626364656600000000000000000000000000000000600a86061a8153600a8581611aef57611aee612b39565b5b04945060008503611aa6575b819350505050919050565b60008073ffffffffffffffffffffffffffffffffffffffff168373ffffffffffffffffffffffffffffffffffffffff1614158015611bbe57508273ffffffffffffffffffffffffffffffffffffffff168473ffffffffffffffffffffffffffffffffffffffff161480611b7f5750611b7e8484610c38565b5b80611bbd57508273ffffffffffffffffffffffffffffffffffffffff16611ba583610ebc565b73ffffffffffffffffffffffffffffffffffffffff16145b5b90509392505050565b600073ffffffffffffffffffffffffffffffffffffffff168273ffffffffffffffffffffffffffffffffffffffff1603611c395760006040517f64a0ae92000000000000000000000000000000000000000000000000000000008152600401611c309190612038565b60405180910390fd5b6000611c4783836000610f13565b9050600073ffffffffffffffffffffffffffffffffffffffff168173ffffffffffffffffffffffffffffffffffffffff1614611cbb5760006040517f73c6ac6e000000000000000000000000000000000000000000000000000000008152600401611cb29190612038565b60405180910390fd5b505050565b600080600090507a184f03e93ff9f4daa797ed6e38ed64bf6a1f0100000000000000008310611d1e577a184f03e93ff9f4daa797ed6e38ed64bf6a1f0100000000000000008381611d1457611d13612b39565b5b0492506040810190505b6d04ee2d6d415b85acef81000000008310611d5b576d04ee2d6d415b85acef81000000008381611d5157611d50612b39565b5b0492506020810190505b662386f26fc100008310611d8a57662386f26fc100008381611d8057611d7f612b39565b5b0492506010810190505b6305f5e1008310611db3576305f5e1008381611da957611da8612b39565b5b0492506008810190505b6127108310611dd8576127108381611dce57611dcd612b39565b5b0492506004810190505b60648310611dfb5760648381611df157611df0612b39565b5b0492506002810190505b600a8310611e0a576001810190505b80915050919050565b6000604051905090565b600080fd5b600080fd5b60007fffffffff0000000000000000000000000000000000000000000000000000000082169050919050565b611e5c81611e27565b8114611e6757600080fd5b50565b600081359050611e7981611e53565b92915050565b600060208284031215611e9557611e94611e1d565b5b6000611ea384828501611e6a565b91505092915050565b60008115159050919050565b611ec181611eac565b82525050565b6000602082019050611edc6000830184611eb8565b92915050565b600081519050919050565b600082825260208201905092915050565b60005b83811015611f1c578082015181840152602081019050611f01565b60008484015250505050565b6000601f19601f8301169050919050565b6000611f4482611ee2565b611f4e8185611eed565b9350611f5e818560208601611efe565b611f6781611f28565b840191505092915050565b60006020820190508181036000830152611f8c8184611f39565b905092915050565b6000819050919050565b611fa781611f94565b8114611fb257600080fd5b50565b600081359050611fc481611f9e565b92915050565b600060208284031215611fe057611fdf611e1d565b5b6000611fee84828501611fb5565b91505092915050565b600073ffffffffffffffffffffffffffffffffffffffff82169050919050565b600061202282611ff7565b9050919050565b61203281612017565b82525050565b600060208201905061204d6000830184612029565b92915050565b61205c81612017565b811461206757600080fd5b50565b60008135905061207981612053565b92915050565b6000806040838503121561209657612095611e1d565b5b60006120a48582860161206a565b92505060206120b585828601611fb5565b9150509250929050565b6120c881611f94565b82525050565b60006020820190506120e360008301846120bf565b92915050565b60008060006060848603121561210257612101611e1d565b5b60006121108682870161206a565b93505060206121218682870161206a565b925050604061213286828701611fb5565b9150509250925092565b60006020828403121561215257612151611e1d565b5b60006121608482850161206a565b91505092915050565b600080fd5b600080fd5b7f4e487b7100000000000000000000000000000000000000000000000000000000600052604160045260246000fd5b6121ab82611f28565b810181811067ffffffffffffffff821117156121ca576121c9612173565b5b80604052505050565b60006121dd611e13565b90506121e982826121a2565b919050565b600067ffffffffffffffff82111561220957612208612173565b5b61221282611f28565b9050602081019050919050565b82818337600083830152505050565b600061224161223c846121ee565b6121d3565b90508281526020810184848401111561225d5761225c61216e565b5b61226884828561221f565b509392505050565b600082601f83011261228557612284612169565b5b813561229584826020860161222e565b91505092915050565b6000602082840312156122b4576122b3611e1d565b5b600082013567ffffffffffffffff8111156122d2576122d1611e22565b5b6122de84828501612270565b91505092915050565b6122f081611eac565b81146122fb57600080fd5b50565b60008135905061230d816122e7565b92915050565b6000806040838503121561232a57612329611e1d565b5b60006123388582860161206a565b9250506020612349858286016122fe565b9150509250929050565b600067ffffffffffffffff82111561236e5761236d612173565b5b61237782611f28565b9050602081019050919050565b600061239761239284612353565b6121d3565b9050828152602081018484840111156123b3576123b261216e565b5b6123be84828561221f565b509392505050565b600082601f8301126123db576123da612169565b5b81356123eb848260208601612384565b91505092915050565b6000806000806080858703121561240e5761240d611e1d565b5b600061241c8782880161206a565b945050602061242d8782880161206a565b935050604061243e87828801611fb5565b925050606085013567ffffffffffffffff81111561245f5761245e611e22565b5b61246b878288016123c6565b91505092959194509250565b6000806040838503121561248e5761248d611e1d565b5b600061249c8582860161206a565b92505060206124ad8582860161206a565b9150509250929050565b7f4e487b7100000000000000000000000000000000000000000000000000000000600052602260045260246000fd5b600060028204905060018216806124fe57607f821691505b602082108103612511576125106124b7565b5b50919050565b600060608201905061252c6000830186612029565b61253960208301856120bf565b6125466040830184612029565b949350505050565b600081905092915050565b50565b600061256960008361254e565b915061257482612559565b600082019050919050565b600061258a8261255c565b9150819050919050565b7f5472616e73666572206661696c65640000000000000000000000000000000000600082015250565b60006125ca600f83611eed565b91506125d582612594565b602082019050919050565b600060208201905081810360008301526125f9816125bd565b9050919050565b7f496e73756666696369656e742046756e64730000000000000000000000000000600082015250565b6000612636601283611eed565b915061264182612600565b602082019050919050565b6000602082019050818103600083015261266581612629565b9050919050565b7f536f6c64204f7574000000000000000000000000000000000000000000000000600082015250565b60006126a2600883611eed565b91506126ad8261266c565b602082019050919050565b600060208201905081810360008301526126d181612695565b9050919050565b7f4e487b7100000000000000000000000000000000000000000000000000000000600052601160045260246000fd5b600061271282611f94565b91507fffffffffffffffffffffffffffffffffffffffffffffffffffffffffffffffff8203612744576127436126d8565b5b600182019050919050565b600081905092915050565b600061276582611ee2565b61276f818561274f565b935061277f818560208601611efe565b80840191505092915050565b6000612797828561275a565b91506127a3828461275a565b91508190509392505050565b60008190508160005260206000209050919050565b60006020601f8301049050919050565b600082821b905092915050565b6000600883026128117fffffffffffffffffffffffffffffffffffffffffffffffffffffffffffffffff826127d4565b61281b86836127d4565b95508019841693508086168417925050509392505050565b6000819050919050565b600061285861285361284e84611f94565b612833565b611f94565b9050919050565b6000819050919050565b6128728361283d565b61288661287e8261285f565b8484546127e1565b825550505050565b600090565b61289b61288e565b6128a6818484612869565b505050565b5b818110156128ca576128bf600082612893565b6001810190506128ac565b5050565b601f82111561290f576128e0816127af565b6128e9846127c4565b810160208510156128f8578190505b61290c612904856127c4565b8301826128ab565b50505b505050565b600082821c905092915050565b600061293260001984600802612914565b1980831691505092915050565b600061294b8383612921565b9150826002028217905092915050565b61296482611ee2565b67ffffffffffffffff81111561297d5761297c612173565b5b61298782546124e6565b6129928282856128ce565b600060209050601f8311600181146129c557600084156129b3578287015190505b6129bd858261293f565b865550612a25565b601f1984166129d3866127af565b60005b828110156129fb578489015182556001820191506020850194506020810190506129d6565b86831015612a185784890151612a14601f891682612921565b8355505b6001600288020188555050505b505050505050565b600081519050919050565b600082825260208201905092915050565b6000612a5482612a2d565b612a5e8185612a38565b9350612a6e818560208601611efe565b612a7781611f28565b840191505092915050565b6000608082019050612a976000830187612029565b612aa46020830186612029565b612ab160408301856120bf565b8181036060830152612ac38184612a49565b905095945050505050565b600081519050612add81611e53565b92915050565b600060208284031215612af957612af8611e1d565b5b6000612b0784828501612ace565b91505092915050565b6000604082019050612b256000830185612029565b612b3260208301846120bf565b9392505050565b7f4e487b7100000000000000000000000000000000000000000000000000000000600052601260045260246000fdfea26469706673582212206646a8bb8a72763180487f831c14c19360b0fac4b8baded32d35942c6ada409364736f6c63430008140033",
  "linkReferences": {},
  "deployedLinkReferences": {}
}